:020000040800F2
:1000000000500020A91E0008711900087D19000881
:1000100083190008891900088F19000800000000E2
:10002000000000000000000000000000951900081A
:10003000A119000800000000AD190008B919000856
:10004000F11E0008F11E0008F11E0008F11E000854
:10005000F11E0008F11E0008F11E0008F11E000844
:10006000F11E0008F11E0008F11E0008F11E000834
:10007000F11E0008F11E0008F11E0008F11E000824
:10008000F11E0008F11E0008F11E0008F11E000814
:10009000F11E0008F11E0008F11E0008F11E000804
:1000A000F11E0008F11E0008F11E0008F11E0008F4
:1000B000F11E0008F11E0008F11E0008F11E0008E4
:1000C000F11E0008F11E0008F11E0008F11E0008D4
:1000D000F11E0008F11E0008F11E00088D1D000829
:1000E000F11E0008F11E0008F11E000800000000CB
:1000F0000000000000000000000000000000000000
:0C01000000000000000000005FF808F1A3
:1001100010B5054C237833B9044B13B10448AFF341
:1001200000800123237010BDE801002000000000C2
:10013000E469000808B5034B1BB103490348AFF35A
:10014000008008BD00000000EC010020E469000808
:10015000034613F8012B002AFBD1181A0138704707
:1001600081F0004102E000BF83F0004330B54FEA68
:1001700041044FEA430594EA050F08BF90EA020FD5
:100180001FBF54EA000C55EA020C7FEA645C7FEA68
:10019000655C00F0E2804FEA5454D4EB5555B8BF8B
:1001A0006D420CDD2C4480EA020281EA030382EAFC
:1001B000000083EA010180EA020281EA0303362D8E
:1001C00088BF30BD11F0004F4FEA01314FF4801C61
:1001D0004CEA113102D0404261EB410113F0004F73
:1001E0004FEA03334CEA133302D0524263EB43032A
:1001F00094EA050F00F0A780A4F10104D5F1200EC8
:100200000DDB02FA0EFC22FA05F2801841F1000122
:1002100003FA0EF2801843FA05F359410EE0A5F1F6
:1002200020050EF1200E012A03FA0EFC28BF4CF027
:10023000020C43FA05F3C01851EBE37101F00045DD
:1002400007D54FF0000EDCF1000C7EEB00006EEBEA
:100250000101B1F5801F1BD3B1F5001F0CD3490874
:100260005FEA30004FEA3C0C04F101044FEA4452CB
:1002700012F5800F80F09A80BCF1004F08BF5FEA52
:10028000500C50F1000041EB045141EA050130BD32
:100290005FEA4C0C404141EB010111F4801FA4F1D5
:1002A0000104E9D191F0000F04BF01460020B1FA2A
:1002B00081F308BF2033A3F10B03B3F120020CDA62
:1002C0000C3208DD02F1140CC2F10C0201FA0CF040
:1002D00021FA02F10CE002F11402D8BFC2F1200CA5
:1002E00001FA02F120FA0CFCDCBF41EA0C0190405B
:1002F000E41AA2BF01EB0451294330BD6FEA0404A4
:100300001F3C1CDA0C340EDC04F11404C4F120028E
:1003100020FA04F001FA02F340EA030021FA04F3A0
:1003200045EA030130BDC4F10C04C4F1200220FAF7
:1003300002F001FA04F340EA0300294630BD21FA35
:1003400004F0294630BD94F0000F83F4801306BFFB
:1003500081F480110134013D4EE77FEA645C18BFEF
:100360007FEA655C29D094EA050F08BF90EA020F86
:1003700005D054EA000C04BF1946104630BD91EA7E
:10038000030F1EBF0021002030BD5FEA545C05D181
:100390004000494128BF41F0004130BD14F58004C0
:1003A0003CBF01F5801130BD01F0004545F0FE4134
:1003B00041F470014FF0000030BD7FEA645C1ABF69
:1003C000194610467FEA655C1CBF0B46024650EAA0
:1003D000013406BF52EA033591EA030F41F40021CC
:1003E00030BD00BF90F0000F04BF0021704730B552
:1003F0004FF4806404F132044FF000054FF0000127
:1004000050E700BF90F0000F04BF0021704730B5E7
:100410004FF4806404F1320410F0004548BF4042BC
:100420004FF000013EE700BF42004FEAE2014FEA11
:1004300031014FEA02701FBF12F07F4393F07F4FEC
:1004400081F06051704732F07F4208BF704793F0EF
:100450007F4F04BF41F40021704730B54FF4607402
:1004600001F0004521F000411CE700BF50EA010205
:1004700008BF704730B54FF000050AE050EA0102AE
:1004800008BF704730B511F0004502D5404261EB1E
:1004900041014FF4806404F132045FEA915C3FF45F
:1004A000D8AE4FF003025FEADC0C18BF03325FEAFC
:1004B000DC0C18BF033202EBDC02C2F1200300FAAD
:1004C00003FC20FA02F001FA03FE40EA0E0021FAD2
:1004D00002F11444BDE600BF70B54FF0FF0C4CF4C0
:1004E000E06C1CEA11541DBF1CEA135594EA0C0F72
:1004F00095EA0C0F00F0DEF82C4481EA030621EAAD
:100500004C5123EA4C5350EA013518BF52EA0335E7
:1005100041F4801143F4801338D0A0FB02CE4FF099
:100520000005E1FB02E506F00042E0FB03E54FF0C9
:100530000006E1FB03569CF0000F18BF4EF0010EC1
:10054000A4F1FF04B6F5007F64F5407404D25FEABD
:100550004E0E6D4146EB060642EAC62141EA555170
:100560004FEAC52040EA5E504FEACE2EB4F1FD0CB2
:1005700088BFBCF5E06F1ED8BEF1004F08BF5FEA30
:10058000500E50F1000041EB045170BD06F00046E2
:1005900046EA010140EA020081EA0301B4EB5C048F
:1005A000C2BFD4EB0C0541EA045170BD41F4801187
:1005B0004FF0000E013C00F3AB8014F1360FDEBFAC
:1005C000002001F0004170BDC4F10004203C35DA88
:1005D0000C341BDC04F11404C4F1200500FA05F30B
:1005E00020FA04F001FA05F240EA020001F00042AC
:1005F00021F0004110EBD37021FA04F642EB060122
:100600005EEA430E08BF20EAD37070BDC4F10C044B
:10061000C4F1200500FA04F320FA05F001FA04F20F
:1006200040EA020001F0004110EBD37041F10001FB
:100630005EEA430E08BF20EAD37070BDC4F1200506
:1006400000FA05F24EEA020E20FA04F301FA05F26E
:1006500043EA020321FA04F001F0004121FA04F216
:1006600020EA020000EBD3705EEA430E08BF20EAE6
:10067000D37070BD94F0000F0FD101F00046400020
:1006800041EB010111F4801F08BF013CF7D041EAA2
:10069000060195F0000F18BF704703F000465200A6
:1006A00043EB030313F4801F08BF013DF7D043EA77
:1006B0000603704794EA0C0F0CEA135518BF95EA2D
:1006C0000C0F0CD050EA410618BF52EA4306D1D1B4
:1006D00081EA030101F000414FF0000070BD50EAD3
:1006E000410606BF1046194652EA430619D094EA5D
:1006F0000C0F02D150EA013613D195EA0C0F05D147
:1007000052EA03361CBF104619460AD181EA03019A
:1007100001F0004141F0FE4141F470014FF0000052
:1007200070BD41F0FE4141F4780170BD70B54FF0ED
:10073000FF0C4CF4E06C1CEA11541DBF1CEA13556D
:1007400094EA0C0F95EA0C0F00F0A7F8A4EB05044F
:1007500081EA030E52EA03354FEA013100F0888046
:100760004FEA03334FF0805545EA131343EA12630F
:100770004FEA022245EA111545EA10654FEA0026C4
:100780000EF000419D4208BF964244F1FD0404F57D
:10079000407402D25B084FEA3202B61A65EB0305D9
:1007A0005B084FEA32024FF480104FF4002CB6EB96
:1007B000020E75EB030E22BFB61A754640EA0C0016
:1007C0005B084FEA3202B6EB020E75EB030E22BF56
:1007D000B61A754640EA5C005B084FEA3202B6EB97
:1007E000020E75EB030E22BFB61A754640EA9C0056
:1007F0005B084FEA3202B6EB020E75EB030E22BF26
:10080000B61A754640EADC0055EA060E18D04FEAE3
:10081000051545EA16754FEA06164FEAC30343EA83
:1008200052734FEAC2025FEA1C1CC0D111F4801F50
:100830000BD141EA00014FF000004FF0004CB6E749
:1008400011F4801F04BF01430020B4F1FD0C88BFE8
:10085000BCF5E06F3FF6AFAEB5EB030C04BFB6EBF3
:10086000020C5FEA500C50F1000041EB045170BDE6
:100870000EF0004E4EEA113114EB5C04C2BFD4EB13
:100880000C0541EA045170BD41F480114FF0000E97
:10089000013C90E645EA060E8DE60CEA135594EA13
:1008A0000C0F08BF95EA0C0F3FF43BAF94EA0C0F16
:1008B0000AD150EA01347FF434AF95EA0C0F7FF48B
:1008C00025AF104619462CE795EA0C0F06D152EADF
:1008D00003353FF4FDAE1046194622E750EA4106C3
:1008E00018BF52EA43067FF4C5AE50EA41047FF4D4
:1008F0000DAF52EA43057FF4EBAE12E74FF0FF3C39
:1009000006E000BF4FF0010C02E000BF4FF0010C09
:100910004DF804CD4FEA410C7FEA6C5C4FEA430C82
:1009200018BF7FEA6C5C1BD001B050EA410C0CBFD1
:1009300052EA430C91EA030F02BF90EA020F002033
:10094000704710F1000F91EA030F58BF994208BF9A
:1009500090422CBFD8176FEAE37040F00100704757
:100960004FEA410C7FEA6C5C02D150EA013C07D1AE
:100970004FEA430C7FEA6C5CD6D152EA033CD3D0F9
:100980005DF8040B704700BF8446104662468C46F3
:100990001946634600E000BF01B5FFF7B7FF002826
:1009A00048BF10F1000F01BD4DF808EDFFF7F4FF4F
:1009B0000CBF012000205DF808FB00BF4DF808EDDA
:1009C000FFF7EAFF34BF012000205DF808FB00BFFD
:1009D0004DF808EDFFF7E0FF94BF012000205DF81F
:1009E00008FB00BF4DF808EDFFF7CEFF94BF0120D4
:1009F00000205DF808FB00BF4DF808EDFFF7C4FFCD
:100A000034BF012000205DF808FB00BF4FEA410C15
:100A10007FEA6C5C02D150EA013C0AD14FEA430CF8
:100A20007FEA6C5C02D152EA033C02D14FF0000035
:100A300070474FF0010070474FEA410212F5001273
:100A400015D211D56FF47873B3EB625212D94FEA15
:100A5000C12343F0004343EA505311F0004F23FAFF
:100A600002F018BF404270474FF00000704750EA54
:100A7000013005D111F0004008BF6FF00040704711
:100A80004FF00000704700BF4FEA4102B2F1E0436F
:100A900024BFB3F5001CDCF1FE5C0DD901F0004C65
:100AA0004FEAC0024CEA5070B2F1004F40EB8300B5
:100AB00008BF20F00100704711F0804F21D113F1E1
:100AC0003872BCBF01F00040704741F480114FEA1A
:100AD0005252C2F11802C2F1200C10FA0CF320FAA3
:100AE00002F018BF40F001004FEAC1234FEAD323C0
:100AF00003FA0CFC40EA0C0023FA02F34FEA43032A
:100B0000CCE77FEA625307D150EA01331EBF4FF0B2
:100B1000FE4040F44000704701F0004040F0FE40CD
:100B200040F40000704700BF80B584B000AF0346BA
:100B3000FB7100F0A5FA802000F0E6FA4CF250308C
:100B400000F020FB0346002B73D0FB79482B03D128
:100B5000F52000F0D9FA02E0F32000F0D5FA4CF2CB
:100B6000503000F00FFB0346002B5CD000F088FAF9
:100B7000812000F0C9FA04E000F082FA812000F040
:100B8000C3FA4CF2503000F0FDFA0346002BF3D0CC
:100B9000462001F011FA07F10C0300210A461A80E1
:100BA0000A469A7000F062FB03463B7300F01EFB9E
:100BB00000F05CFB03467B7300F018FB00F056FB73
:100BC0000346BB7300F032FB00F07AFA07F10C0326
:100BD000184600F03BF80346002B05D1194800F0F9
:100BE000E9F84FF0000329E0FB79482B0DD13B7B5E
:100BF0009BB21B029AB27B7B9BB213449BB21946F9
:100C0000482000F071F8034618E03B7B9BB21B02C2
:100C10009AB27B7B9BB213449BB21946542000F0DE
:100C200063F803460AE0084800F0C4F84FF00003F8
:100C300004E0054800F0BEF84FF0000318461037F6
:100C4000BD4680BD286A00083C6A000880B487B0B1
:100C500000AF78607B681B783B737B685B787B7345
:100C600040F231133B610023FB750023BB75002369
:100C70007B7500237B7523E07B7D07F1180213440D
:100C800013F80C2CFB7D5340FB750823BB7511E05A
:100C900097F91730002B07DAFB7D5B00DAB23B696E
:100CA000DBB25340FB7502E0FB7D5B00FB75BB7D57
:100CB000013BBB75BB7D002BEAD17B7D01337B758E
:100CC0007B7D012BD8D97B6802331B78FA7D9A4251
:100CD00001D1012300E0002318461C37BD4680BC2B
:100CE000704700000000000090B583B000AF0346DD
:100CF0000A46FB711346BB80BB8823F00303BB800D
:100D0000FB79482B22D1BB881846FFF77BFB4FF0BD
:100D10000002254BFFF7E0FB03460C461846214630
:100D20004FF00002214BFFF701FD03460C46184629
:100D300021464FF000021E4BFFF716FA03460C4601
:100D400018462146FFF7A0FE034621E0BB8818465F
:100D5000FFF758FB10A3D3E90023FFF7BDFB0346C1
:100D60000C46184621464FF00002104BFFF7DEFC00
:100D700003460C461846214609A3D3E90023FFF792
:100D8000F3F903460C4618462146FFF77DFE03465D
:100D900018460C37BD4690BDD7A3703D0AF7654095
:100DA000CDCCCCCCCC6C474000405F400000F04044
:100DB0000000184080B584B000AF78600023FB814C
:100DC0007B68BB6002E0FB890133FB81BB685A1C76
:100DD000BA601B78002BF6D1FA894FF6FF73796859
:100DE000064803F036F94FF6FF7302220449034820
:100DF00003F02FF900BF1037BD4680BD200300204F
:100E0000646A000880B584B000AF3B1D00221A6000
:100E10005A609A60184B194A1A60174B00229A6060
:100E2000154B00221A73144B00221A75124B4FF403
:100E30006022DA61104B00225A600F4B01221A61C6
:100E40000D4801F0DBF80346002B01D000F0CDFA8D
:100E500003237B600123BB600723FB603B1D194616
:100E6000054801F057FB0346002B01D000F0BDFA06
:100E700000BF1037BD4680BD540200200024014051
:100E800080B588B000AF786007F1100300221A60C7
:100E90005A609A60DA607B681B68144A934221D1D9
:100EA000134B9B69124A43F400739361104B9B6987
:100EB00003F40073FB60FB680D4B9B690C4A43F025
:100EC000040393610A4B9B6903F00403BB60BB6896
:100ED00008233B6103237B6107F110031946054892
:100EE00001F020FE00BF2037BD4680BD0024014038
:100EF000001002400008014080B586B000AF786065
:100F00007B68FB6001233B6107237B6107F10C03D6
:100F10001946094801F0FEFA074801F047F90A218D
:100F2000054801F0F1F9044801F0E8FA03469BB2E4
:100F300018461837BD4680BD5402002080B584B0E5
:100F400000AF78600B46FB700023FB600023FB7250
:100F50000DE07868FFF7D0FF03461A46FB6813449C
:100F6000FB60052001F028F8FB7A0133FB72FA7A66
:100F7000FB789A42EDD3FB78FA68B2FBF3F39BB2AD
:100F800018461037BD4680BD80B588B000AF07F168
:100F9000100300221A605A609A60DA60274B9B693E
:100FA000264A43F020039361244B9B6903F02003FE
:100FB000FB60FB68214B9B69204A43F0040393616B
:100FC0001E4B9B6903F00403BB60BB681B4B9B6912
:100FD0001A4A43F008039361184B9B6903F0080316
:100FE0007B607B680122C021154801F00CFF0022C4
:100FF0004CF20101134801F006FFC0233B611123AD
:101000007B610023BB610323FB6107F110031946D9
:101010000B4801F087FD4CF201033B6101237B612A
:101020000023BB610223FB6107F110031946054849
:1010300001F078FD00BF2037BD4680BD00100240A2
:1010400000080140000C014080B483B000AF0346AB
:10105000FB80FB881A46920013441A4691001A46F8
:101060000B4613445B00FB8000BFFB885A1EFA80CE
:10107000002BFAD100BF18460C37BD4680BC704724
:1010800080B500AF012240210C4801F0BCFE0122D6
:1010900080210A4801F0B7FE0520FFF7D5FF0022A6
:1010A0004021064801F0AFFE0520FFF7CDFF0022EA
:1010B0008021024801F0A7FE00BF80BD000801406A
:1010C00080B500AF002240210E4801F09CFE0022B6
:1010D00080210C4801F097FE0520FFF7B5FF0122A3
:1010E0008021084801F08FFE0520FFF7ADFF0122A7
:1010F0004021044801F087FE0A20FFF7A5FF00BF4A
:1011000080BD00BF0008014080B584B000AF034639
:10111000FB71002280211A4801F075FE0520FFF7BF
:1011200093FF0023FB6024E097F90730002B05DADA
:1011300001224021124801F066FE04E00022402115
:101140000F4801F060FEFB795B00FB710520FFF7A3
:101150007BFF012280210A4801F055FE0520FFF7A0
:1011600073FF00228021064801F04DFEFB68013329
:10117000FB60FB68072BD7DD00BF1037BD4680BD85
:101180000008014080B582B000AF0346FB80012219
:101190004021154801F037FE0520FFF755FF0122D9
:1011A0008021114801F02FFE0520FFF74DFF0AE0D6
:1011B000FB88013BFB80FB88002B01D100230FE063
:1011C0000120FFF741FF4021074801F005FE0346DB
:1011D000002BEDD100228021034801F014FE0123F1
:1011E00018460837BD4680BD0008014080B500AFF5
:1011F000002280210C4801F006FE002240210A480E
:1012000001F001FE0520FFF71FFF012280210648A3
:1012100001F0F9FD0520FFF717FF002280210248A9
:1012200001F0F1FD00BF80BD0008014080B500AFB6
:10123000012240210C4801F0E6FD002280210A48ED
:1012400001F0E1FD0520FFF7FFFE012280210648A5
:1012500001F0D9FD0520FFF7F7FE002280210248AA
:1012600001F0D1FD00BF80BD0008014080B582B013
:1012700000AF0023FB7101224021174801F0C3FD9C
:101280000023BB711FE000228021134801F0BBFD49
:101290000520FFF7D9FE012280210F4801F0B3FDA0
:1012A000FB795B00FB7140210B4801F095FD034683
:1012B000002B02D0FB790133FB710520FFF7C4FE40
:1012C000BB790133BB71BB79072BDCD9FB7918469D
:1012D0000837BD4680BD00BF0008014080B58EB014
:1012E00000AF00F007FE00F025F8FFF74DFEFFF716
:1012F00089FD00F0C7FB00F057FC00F07FFC00F018
:1013000093FA0A4A0021002000F062FA00F0DAF9AC
:1013100000F072F800F08AF8054B32229A63044B11
:10132000C8225A63024BFA22DA63F1E7686A0008BE
:101330000008004080B594B000AF07F128032822D0
:101340000021184603F00AFB07F1140300221A607B
:101350005A609A60DA601A613B1D00221A605A6076
:101360009A60DA600123BB624FF48033FB62002392
:101370003B630123BB6302237B644FF48033BB6474
:101380004FF4E013FB6407F12803184601F054FD05
:101390000346002B01D000F028F80F237B610223C5
:1013A000BB610023FB614FF480633B6200237B62DF
:1013B00007F114030221184601F0BEFF0346002B7B
:1013C00001D000F012F802237B604FF40043FB6071
:1013D0003B1D184602F04CF90346002B01D000F0EB
:1013E00004F800BF5037BD4680BD80B400AF00BFD9
:1013F000BD4680BC7047000080B500AF4820FFF7B5
:1014000093FB0246084B5A605420FFF78DFB0246BF
:10141000054B1A6005210320FFF790FD03461A468D
:10142000014B1A8100BF80BD0000002090B591B033
:1014300000AF204B1B89C3F57F630F331E4A82FB2D
:1014400003121211DB17D21A3B461C49184603F04F
:10145000DDFE3B461A460021002000F0B9F9154B8D
:101460001B681846FEF7E0FF03460C4638461A464E
:101470002346134903F0CAFE3B461A4602210020C8
:1014800000F0A6F90B4B5B681846FEF7CDFF03464C
:101490000C4638461A4623460A4903F0B7FE3B4637
:1014A0001A460421002000F093F900BF4437BD46DE
:1014B00090BD00BF00000020676666669C6A000859
:1014C000A86A0008B46A000880B500AF01224FF492
:1014D00000410B4801F097FC01224FF4804108487D
:1014E00001F091FC00224FF48041054801F08BFC93
:1014F00000224FF40041024801F085FC00BF80BD8E
:10150000000C014080B500AF01224FF400410848B3
:1015100001F079FC00224FF48041054801F073FC92
:1015200001224FF48041024801F06DFC00BF80BDF4
:10153000000C014080B500AF01224FF40041054886
:1015400001F061FC00224FF40041024801F05BFC15
:1015500000BF80BD000C014080B584B000AF0346E1
:10156000FB71FB79BB7300224FF400411A4801F074
:101570004AFC0023FB7327E0BB7B7B737B7B23F060
:101580007F037B737B7B802B06D101224FF480414C
:10159000114801F038FC05E000224FF480410E486C
:1015A00001F031FCBB7B5B00BB7301224FF40041B7
:1015B000094801F028FC00224FF40041064801F0E0
:1015C00022FCFB7B0133FB73FB7B072BD4D900BFD1
:1015D0001037BD4680BD00BF000C014080B582B011
:1015E00000AF0346FB71FFF76FFF7820FFF7B4FFF2
:1015F000FFF7A0FF0020FFF7AFFFFFF79BFFFB798E
:101600001846FFF7A9FFFFF795FFFFF77BFF00BF25
:101610000837BD4680BD80B582B000AF0346FB7180
:10162000FFF752FF7820FFF797FFFFF783FF402077
:10163000FFF792FFFFF77EFFFB791846FFF78CFF5D
:10164000FFF778FFFFF75EFF00BF0837BD4680BD9C
:1016500080B582B000AF786039603B68002B05D060
:101660007B68DBB21846FFF7D6FF04E07B68DBB28D
:101670001846FFF7B3FF00BF0837BD4680BD80B5F1
:1016800082B000AF03460A46FB711346BB71BB79BB
:10169000B03300211846FFF7DBFFFB791B09DBB2F3
:1016A00043F01003DBB200211846FFF7D1FFFB79AE
:1016B00003F00F0300211846FFF7CAFF00BF0837E9
:1016C000BD4680BD80B582B000AF0023FB711EE037
:1016D000FB79B03300211846FFF7BAFF0021002044
:1016E000FFF7B6FF00211020FFF7B2FF0023BB7108
:1016F00006E001210020FFF7ABFFBB790133BB718E
:1017000097F90630002BF4DAFB790133FB71FB7992
:10171000072BDDD900BF0837BD4680BD90B585B029
:1017200000AF0446084611461A462346FB7103469D
:10173000BB710B467B7113463B710023BB730023C7
:10174000FB737B79203BBB7397F90730002B04DADE
:101750000023FB71BB790233BB71BA79FB79114667
:101760001846FFF78CFF0023FB730CE0BB7B1A01CC
:10177000FB7B1344154AD35C01211846FFF768FF31
:10178000FB7B0133FB73FB7B072BEFD9BB79013369
:10179000DAB2FB7911461846FFF771FF0023FB739D
:1017A0000DE0BB7B1A01FB7B13440833074AD35C73
:1017B00001211846FFF74CFFFB7B0133FB73FB7BDA
:1017C000072BEED900BF1437BD4690BD386B00081B
:1017D00080B584B000AF03463A60FB710B46BB7125
:1017E0000023FB7316E0FB7B3A6813441A78B9793F
:1017F000F8790123FFF792FFFB790833FB71FB793E
:10180000782B04D90023FB71BB790233BB71FB7BBE
:101810000133FB73FB7B3A6813441B78002BE2D146
:1018200000BF1037BD4680BD80B500AF0021AE209F
:10183000FFF70EFF00210020FFF70AFF0021102014
:10184000FFF706FF00214020FFF702FF0021B02034
:10185000FFF7FEFE00218120FFF7FAFE0021FF20A6
:10186000FFF7F6FE0021A120FFF7F2FE0021A620DF
:10187000FFF7EEFE0021A820FFF7EAFE00213F203F
:10188000FFF7E6FE0021C820FFF7E2FE0021D3208B
:10189000FFF7DEFE00210020FFF7DAFE0021D52051
:1018A000FFF7D6FE00218020FFF7D2FE0021D820CE
:1018B000FFF7CEFE00210520FFF7CAFE0021D92048
:1018C000FFF7C6FE0021F120FFF7C2FE0021DA205B
:1018D000FFF7BEFE00211220FFF7BAFE0021DB2039
:1018E000FFF7B6FE00213020FFF7B2FE00218D2069
:1018F000FFF7AEFE00211420FFF7AAFE0021AF2063
:10190000FFF7A6FEFFF7DEFE00BF80BD80B485B006
:1019100000AF154B9B69144A43F001039361124BCE
:101920009B6903F00103BB60BB680F4BDB690E4A88
:1019300043F08053D3610C4BDB6903F080537B6031
:101940007B680A4B5B68FB60FB6823F0E063FB602D
:10195000FB6843F00073FB60044AFB68536000BF00
:101960001437BD4680BC70470010024000000140A3
:1019700080B400AF00BFBD4680BC704780B400AFEC
:10198000FEE780B400AFFEE780B400AFFEE780B4AE
:1019900000AFFEE780B400AF00BFBD4680BC70471B
:1019A00080B400AF00BFBD4680BC704780B400AFBC
:1019B00000BFBD4680BC704780B500AF00F0E0FAC4
:1019C00000BF80BD80B584B000AF7860114B1B684C
:1019D000002B02D10F4B104A1A600E4B1B68FB60A4
:1019E0000C4B1A687B6813446A46934207D902F08D
:1019F0008BFF02460C2313604FF0FF3306E0054BCC
:101A00001A687B681344034A1360FB681846103752
:101A1000BD4680BD04020020B003002080B400AFAA
:101A2000154B1B68144A43F001031360124B5A68AC
:101A30001149124B13404B600F4B1B680E4A23F0A9
:101A4000847323F4803313600B4B1B680A4A23F41E
:101A500080231360084B5B68074A23F4FE0353603E
:101A6000054B4FF41F029A60054B4FF000629A60DD
:101A700000BFBD4680BC7047001002400000FFF868
:101A800000ED00E080B500AF244B254A1A60234BDF
:101A900047225A60214B00229A60204BFF22DA60D5
:101AA0001E4B00221A611D4801F054FF1D4B60229D
:101AB0001A601C4B00225A601A4B02229A600022C4
:101AC0001849164801F0A4FF04221649134801F0F2
:101AD0009FFF08221349114801F09AFF0C22114977
:101AE0000E4801F095FF00210C4801F05FFF042132
:101AF0000A4801F05BFF0821084801F057FF0C215C
:101B0000064801F053FF064BFF229A63044BFF2265
:101B10005A63034BFF22DA6300BF80BD84020020BA
:101B200000080040C402002080B588B000AF786093
:101B300007F1100300221A605A609A60DA607B682D
:101B40001B68164A934224D1154BDB69144A43F0B3
:101B50000403D361124BDB6903F00403FB60FB68F1
:101B60000F4B9B690E4A43F0080393610C4B9B6932
:101B700003F00803BB60BB684FF470733B61022342
:101B80007B610323FB6107F110031946054800F050
:101B9000C9FF00BF2037BD4680BD00BF0008004020
:101BA00000100240000C014080B500AF114B124AFA
:101BB0001A60104B4FF4E1325A600E4B00229A60CB
:101BC0000C4B0022DA600B4B00221A61094B0C22ED
:101BD0005A61084B00229A61064B0022DA610548DF
:101BE00002F0EAF90346002B01D0FFF7FEFB00BF2D
:101BF00080BD00BF200300200038014080B500AF49
:101C0000134B144A1A60124B4FF4E1325A60104BD6
:101C100000229A600E4B0022DA600D4B00221A61FE
:101C20000B4B0C225A610A4B00229A61084B00228E
:101C3000DA61074802F0C0F90346002B01D0FFF734
:101C4000D4FB01220449024802F09CFA00BF80BD87
:101C5000E0020020004800406403002080B58AB004
:101C600000AF786007F1180300221A605A609A608A
:101C7000DA607B681B68404A93423AD13F4B9B69CC
:101C80003E4A43F4804393613C4B9B6903F4804399
:101C90007B617B69394B9B69384A43F0040393614C
:101CA000364B9B6903F004033B613B694FF40073BF
:101CB000BB610223FB6103237B6207F11803194612
:101CC0002F4800F02FFF4FF48063BB610023FB61BE
:101CD00000233B6207F118031946294800F022FF50
:101CE00000220021252000F070FE252000F089FE52
:101CF0003EE07B681B68234A934239D11F4BDB6966
:101D00001E4A43F48023D3611C4BDB6903F4802318
:101D1000FB60FB68194B9B69184A43F00803936109
:101D2000164B9B6903F00803BB60BB684FF48063EC
:101D3000BB610223FB6103237B6207F11803194691
:101D4000114800F0EFFE4FF40063BB610023FB611C
:101D500000233B6207F1180319460B4800F0E2FE2E
:101D600001220121272000F030FE272000F049FE4B
:101D700000BF2837BD4680BD00380140001002403A
:101D80000008014000480040000C014080B582B0CE
:101D900000AF00237B60174B3B60174802F046FA08
:101DA00000237B6006E07B6801337B607A683B68D8
:101DB0009A4206D8104802F047FB0346202BF2D186
:101DC00000E000BF00237B6006E07B6801337B609E
:101DD0007A683B689A4208D801220849064802F00E
:101DE000D1F90346002BF0D100E000BF00BF083757
:101DF000BD4680BDFFFF0100E0020020640300201B
:101E000080B483B000AF78607B681B68234A93423C
:101E10003FD1234B1B881BB2002B3ADB204B1B8886
:101E200003F48043002B11D01E4B1B780A2B03D0E8
:101E30001B4B00221A802CE0194B1B886FEA43438E
:101E40006FEA53439AB2164B1A8022E0154B1B7867
:101E50000D2B07D1124B1B8843F480439AB2104BD1
:101E60001A8016E00E4B1B88C3F30D030D4A117840
:101E70000B4A13440A469A70094B1B8801339AB2E5
:101E8000074B1A80064B1B883F2B02D9044B0022BC
:101E90001A8000BF0C37BD4680BC70470048004028
:101EA0000802002064030020002103E00B4B5B5874
:101EB000435004310A480B4B42189A42F6D30A4A5F
:101EC00002E0002342F8043B084B9A42F9D3FFF7A3
:101ED000A5FD02F01FFDFFF701FA70470874000826
:101EE00000000020E8010020E8010020B0030020ED
:101EF000FEE7000080B500AF084B1B68074A43F0BF
:101F000010031360032000F055FD002000F008F8D6
:101F1000FFF7FCFC0023184680BD00BF00200240F4
:101F200080B582B000AF7860124B1A68124B1B78F4
:101F300019464FF47A73B3FBF1F3B2FBF3F318468F
:101F400000F06DFD0346002B01D001230EE07B68FD
:101F50000F2B0AD8002279684FF0FF3000F035FDD2
:101F6000064A7B681360002300E001231846083707
:101F7000BD4680BD0C000020140000201000002091
:101F800080B400AF054B1B781A46054B1B68134401
:101F9000034A136000BFBD4680BC70471400002098
:101FA000A803002080B400AF024B1B681846BD4652
:101FB00080BC7047A803002080B584B000AF786073
:101FC000FFF7F0FFB8607B68FB60FB68B3F1FF3F91
:101FD00005D0094B1B781A46FB681344FB6000BF11
:101FE000FFF7E0FF0246BB68D31AFA689A42F7D8B7
:101FF00000BF1037BD4680BD1400002080B586B0FC
:1020000000AF78600023FB7500233B610023BB60B9
:102010000023FB607B68002B01D10123BEE07B68BD
:102020009B68002B7B689B6A002B09D17B68002290
:10203000DA627B68002283F824207868FEF720FFAC
:10204000786800F0B1FB0346FB757B689B6A03F080
:102050001003002B40F09980FB7D002B40F0958011
:102060007B689B6A23F4885323F0020343F0020247
:102070007B689A627B685A687B68DB691A437B6875
:102080001B7B5B001343BA681343BB607B689B6890
:10209000B3F5807F03D07B689B68012B02D14FF49E
:1020A000807300E000233A6913433B617B681B7D2A
:1020B000012B19D17B681B7B002B09D17B689B69A5
:1020C000013B5A033B69134343F400633B610BE05C
:1020D0007B689B6A43F020027B689A627B68DB6ABC
:1020E00043F001027B68DA627B681B685B6823F45B
:1020F00069417B681B683A690A435A607B681B68C0
:102100009A68284B13407A681268B9680B43936049
:102110007B689B68B3F5807F03D07B689B68012B4D
:1021200004D17B681B69013B1B05FB607B681B6856
:10213000DB6A23F470017B681B68FA680A43DA6281
:102140007B681B689A68184B1340BA689A420BD197
:102150007B680022DA627B689B6A23F0030343F00A
:1021600001027B689A6218E07B689B6A23F0120385
:1021700043F010027B689A627B68DB6A43F00102DD
:102180007B68DA620123FB7507E07B689B6A43F09A
:1021900010027B689A620123FB75FB7D1846183795
:1021A000BD4680BDFDF7E1FFFE0E1FFF80B584B088
:1021B00000AF78600023FB737B6893F82430012B19
:1021C00001D1022398E07B68012283F824207868FB
:1021D00000F098FA0346FB73FB7B002B40F08780EE
:1021E0007B689B6A23F4407323F0010343F48072FD
:1021F0007B689A627B681B68414A934205D1414BD8
:102200005B6803F47023002B15D17B689B6A23F471
:1022100080127B689A627B681B685B6803F480634A
:10222000002B26D07B689B6A23F4405343F48052F2
:102230007B689A621DE07B689B6A43F480127B682E
:102240009A627B681B682F4A934204D07B681B68A4
:102250002B4A93420DD12B4B5B6803F48063002B18
:1022600007D07B689B6A23F4405343F480527B6819
:102270009A627B689B6A03F48053002B06D07B68CC
:10228000DB6A23F006027B68DA6202E07B680022E8
:10229000DA627B68002283F824207B681B686FF079
:1022A00002021A607B681B689B6803F46023B3F525
:1022B000602F13D17B681B68114A934205D1114BE3
:1022C0005B6803F47023002B08D17B681B689A6855
:1022D0007B681B6842F4A0029A600CE07B681B6874
:1022E0009A687B681B6842F480129A6003E07B68FE
:1022F000002283F82420FB7B18461037BD4680BDA2
:10230000002801400024014090B587B000AF7860FC
:10231000396000237B610023FB6000233B61FFF7F2
:1023200041FE78617B681B689B6803F48073002B17
:102330000BD07B689B6A43F020027B689A627B68C3
:10234000002283F824200123C8E07B681B685B68B7
:1023500003F48073002B2AD17B681B68DB6A03F4CB
:102360007003002B23D11AE03B68B3F1FF3F16D076
:102370003B68002B07D0FFF715FE02467B69D31A96
:102380003A689A420BD27B689B6A43F004027B68EE
:102390009A627B68002283F8242003239EE07B68F6
:1023A0001B681B6803F00203002BDDD06CE04D4B73
:1023B0001C68022001F012FA0346B4FBF3F27B68BA
:1023C0001B681969484B0B40002B18D17B681B68B0
:1023D000D968464B0B40002B11D17B681B681969EB
:1023E000434B0B40002B08D17B681B68D968414BDD
:1023F0000B40002B01D1142320E029231EE07B6831
:102400001B6819693A4B0B40002B06D17B681B688F
:10241000D968384B0B40002B0DD07B681B681969BD
:10242000354B0B40002B08D17B681B68D968324BB9
:102430000B40002B01D1542300E0FC2302FB03F3EB
:102440003B611DE03B68B3F1FF3F16D03B68002BBA
:1024500007D0FFF7A7FD02467B69D31A3A689A4274
:102460000BD27B689B6A43F004027B689A627B68AC
:10247000002283F82420032330E0FB680133FB6053
:10248000FB683A699A42DDD87B681B686FF01202DC
:102490001A607B689B6A43F400727B689A627B686F
:1024A0001B689B6803F46023B3F5602F15D17B682C
:1024B0001B7B002B11D17B689B6A23F480727B68A5
:1024C0009A627B689B6A03F48053002B05D17B687A
:1024D0009B6A43F001027B689A62002318461C370E
:1024E000BD4690BD0C00002024499224244992004E
:1024F00092244912922449004992240080B483B066
:1025000000AF78607B681B68DB6C18460C37BD46F3
:1025100080BC704780B485B000AF7860396000231C
:10252000FB730023BB607B6893F82430012B01D13F
:102530000223DCE07B68012283F824203B685B688F
:10254000062B1CD87B681B68596B3B685A6813467E
:102550009B001344053B1F2202FA03F3DB4319409F
:102560003B6818683B685A6813469B001344053B58
:1025700000FA03F27B681B680A435A633CE03B683D
:102580005B680C2B1CD87B681B68196B3B685A680E
:1025900013469B001344233B1F2202FA03F3DB4341
:1025A00019403B6818683B685A6813469B001344FF
:1025B000233B00FA03F27B681B680A431A631BE0A3
:1025C0007B681B68D96A3B685A6813469B001344B2
:1025D000413B1F2202FA03F3DB4319403B681868B2
:1025E0003B685A6813469B001344413B00FA03F2D0
:1025F0007B681B680A43DA623B681B68092B1CD99D
:102600007B681B68D9683B681A6813465B001344F3
:102610001E3B072202FA03F3DB4319403B6898682C
:102620003B681A6813465B0013441E3B00FA03F232
:102630007B681B680A43DA6019E07B681B681969CC
:102640003B681A6813465B001344072202FA03F33F
:10265000DB4319403B6898683B681A6813465B0087
:10266000134400FA03F27B681B680A431A613B6853
:102670001B68102B03D03B681B68112B32D17B6881
:102680001B681D4A934225D17B681B689B6803F435
:102690000003002B26D17B681B689A687B681B6847
:1026A00042F400029A603B681B68102B1AD1134B4E
:1026B0001B68134AA2FB03239A0C13469B00134486
:1026C0005B00BB6002E0BB68013BBB60BB68002BEA
:1026D000F9D107E07B689B6A43F020027B689A622D
:1026E0000123FB737B68002283F82420FB7B1846C0
:1026F0001437BD4680BC7047002401400C00002008
:1027000083DE1B4380B584B000AF78600023FB609C
:102710000023BB607B681B689B6803F00103012BEF
:1027200039D07B681B689A687B681B6842F001029D
:102730009A601B4B1B681B4AA2FB03239B0CBB60CC
:1027400002E0BB68013BBB60BB68002BF9D1FFF71F
:1027500029FCF86018E0FFF725FC0246FB68D31A55
:10276000022B11D97B689B6A43F010027B689A6246
:102770007B68DB6A43F001027B68DA627B680022D7
:1027800083F82420012307E07B681B689B6803F023
:102790000103012BDFD1002318461037BD4680BD51
:1027A0000C00002083DE1B4380B584B000AF78604E
:1027B0000023FB607B681B689B6803F00103012B0F
:1027C00027D17B681B689A687B681B6822F001022E
:1027D0009A60FFF7E7FBF86014E0FFF7E3FB0246BF
:1027E000FB68D31A022B0DD97B689B6A43F0100259
:1027F0007B689A627B68DB6A43F001027B68DA627D
:10280000012307E07B681B689B6803F00103012B31
:10281000E3D0002318461037BD4680BD80B485B094
:1028200000AF78607B6803F00703FB600C4BDB684C
:10283000BB60BA684FF6FF031340BB60FB681A0227
:10284000BB68134343F0BF6343F40033BB60044AE7
:10285000BB68D36000BF1437BD4680BC704700BF63
:1028600000ED00E080B400AF044BDB681B0A03F00E
:1028700007031846BD4680BC704700BF00ED00E06E
:1028800080B483B000AF0346FB7197F90730002B8B
:102890000BDBFB7903F01F02064997F907305B0950
:1028A000012000FA02F241F8232000BF0C37BD4698
:1028B00080BC704700E100E080B483B000AF034605
:1028C0003960FB7197F90730002B0ADB3B68DAB2FD
:1028D0000C4997F907301201D2B20B4483F8002358
:1028E0000AE03B68DAB20849FB7903F00F03043BC6
:1028F0001201D2B20B441A7600BF0C37BD4680BC21
:10290000704700BF00E100E000ED00E080B489B056
:1029100000AFF860B9607A60FB6803F00703FB6101
:10292000FB69C3F10703042B28BF0423BB61FB69C8
:102930000433062B02D9FB69033B00E000237B61D3
:102940004FF0FF32BB6902FA03F3DA43BB681A4067
:102950007B699A404FF0FF317B6901FA03F3D94359
:102960007B680B40134318462437BD4680BC704734
:1029700080B582B000AF78607B68013BB3F1807FA7
:1029800001D301230FE00A4A7B68013B53600F210A
:102990004FF0FF30FFF790FF054B00229A60044B89
:1029A00007221A60002318460837BD4680BD00BFC5
:1029B00010E000E080B582B000AF78607868FFF783
:1029C0002DFF00BF0837BD4680BD80B586B000AF83
:1029D0000346B9607A60FB7300237B61FFF742FF17
:1029E00078617A68B9687869FFF790FF024697F9CD
:1029F0000F3011461846FFF75FFF00BF1837BD467E
:102A000080BD80B582B000AF0346FB7197F90730F7
:102A10001846FFF735FF00BF0837BD4680BD80B5BB
:102A200082B000AF78607868FFF7A2FF03461846CF
:102A30000837BD4680BD000080B584B000AF786027
:102A40000023FB737B6893F82130022B05D07B6851
:102A500004229A630123FB7351E07B681B681A68A8
:102A60007B681B6822F00E021A607B681B681A687C
:102A70007B681B6822F001021A607B681B68224A8F
:102A8000934229D07B681B68204A934222D07B68FE
:102A90001B681F4A93421AD07B681B681D4A9342E9
:102AA00012D07B681B681C4A93420AD07B681B6863
:102AB0001A4A934202D14FF480130EE04FF0807314
:102AC0000BE04FF4803308E04FF4805305E04FF4FF
:102AD000807302E0102300E00123114A53607B68F9
:102AE000012283F821207B68002283F820207B6864
:102AF0005B6B002B03D07B685B6B78689847FB7B34
:102B000018461037BD4680BD080002401C00024038
:102B10003000024044000240580002406C00024075
:102B20000000024080B48BB000AF786039600023B1
:102B30007B6200233B6227E101227B6A02FA03F3F6
:102B4000FB613B681B68FA691340BB61BA69FB69AA
:102B50009A4240F016813B685B68122B34D0122BEE
:102B60000DD8022B2BD0022B04D8002B31D0012BF7
:102B70001CD048E0032B43D0112B1BD043E0894AE3
:102B8000934226D0874A934206D8874A934220D060
:102B9000864A93421DD036E0854A934219D0854A31
:102BA000934216D0844A934213D02CE03B68DB68F2
:102BB0003B6228E03B68DB6804333B6223E03B6810
:102BC000DB6808333B621EE03B68DB680C333B622A
:102BD00019E03B689B68002B02D104233B6212E0A2
:102BE0003B689B68012B05D108233B627B68FA692F
:102BF0001A6108E008233B627B68FA695A6102E0C7
:102C000000233B6200BFBB69FF2B01D87B6801E05A
:102C10007B6804337B61BB69FF2B02D87B6A9B0016
:102C200002E07B6A083B9B003B617B691A680F21CD
:102C30003B6901FA03F3DB431A40396A3B6901FA45
:102C400003F31A437B691A603B685B6803F08053A7
:102C5000002B00F09680594B9B69584A43F00103C2
:102C60009361564B9B6903F00103BB60BB68544AF8
:102C70007B6A9B08023352F82330FB607B6A03F0C7
:102C800003039B000F2202FA03F3DB43FA681340AD
:102C9000FB607B684B4A934213D07B684A4A93425D
:102CA0000DD07B68494A934207D07B68484A9342DB
:102CB00001D1032306E0042304E0022302E0012300
:102CC00000E000237A6A02F0030292009340FA685F
:102CD0001343FB603A497B6A9B080233FA6841F868
:102CE00023203B685B6803F48033002B06D0394B0C
:102CF0001A683849BB6913430B6006E0354B1A6804
:102D0000BB69DB43334913400B603B685B6803F4EA
:102D10000033002B06D02F4B5A682E49BB69134352
:102D20004B6006E02B4B5A68BB69DB4329491340D3
:102D30004B603B685B6803F48013002B06D0254B87
:102D40009A682449BB6913438B6006E0214B9A685B
:102D5000BB69DB431F4913408B603B685B6803F42E
:102D60000013002B06D01B4BDA681A49BB691343CA
:102D7000CB6006E0174BDA68BB69DB4315491340AB
:102D8000CB607B6A01337B623B681A687B6A22FAFC
:102D900003F3002B7FF4D0AE00BF2C37BD4680BCC0
:102DA000704700BF00002110000011100000121039
:102DB000000031100000321000002210001002400C
:102DC0000000014000080140000C014000100140DB
:102DD000001401400004014080B485B000AF786069
:102DE0000B467B807B689A687B881340002B02D05F
:102DF0000123FB7301E00023FB73FB7B18461437B0
:102E0000BD4680BC704780B483B000AF78600B468D
:102E10007B8013467B707B78002B03D07A887B689D
:102E20001A6103E07B881A047B681A6100BF0C37C3
:102E3000BD4680BC7047000080B586B000AF7860AA
:102E40007B68002B01D101236CE27B681B6803F0D7
:102E50000103002B00F08780924B5B6803F00C03AA
:102E6000042B0CD08F4B5B6803F00C03082B12D1A2
:102E70008C4B5B6803F48033B3F5803F0BD1894BF7
:102E80001B6803F40033002B6CD07B685B68002B5D
:102E900068D1012346E27B685B68B3F5803F06D1C9
:102EA000804B1B687F4A43F4803313602EE07B68BD
:102EB0005B68002B0CD17B4B1B687A4A23F4803370
:102EC0001360784B1B68774A23F4802313601DE05E
:102ED0007B685B68B3F5A02F0CD1724B1B68714AFD
:102EE00043F4802313606F4B1B686E4A43F48033B6
:102EF00013600BE06B4B1B686A4A23F4803313604A
:102F0000684B1B68674A23F4802313607B685B6807
:102F1000002B13D0FFF746F8386108E0FFF742F8BE
:102F200002463B69D31A642B01D90323FAE15D4BB6
:102F30001B6803F40033002BF0D014E0FFF732F8E5
:102F4000386108E0FFF72EF802463B69D31A642B7C
:102F500001D90323E6E1534B1B6803F40033002B34
:102F6000F0D100E000BF7B681B6803F00203002B78
:102F700063D04C4B5B6803F00C03002B0BD0494B28
:102F80005B6803F00C03082B1CD1464B5B6803F411
:102F90008033002B16D1434B1B6803F00203002B38
:102FA00005D07B681B69012B01D00123BAE13D4BA1
:102FB0001B6823F0F8027B685B69DB003949134327
:102FC0000B603AE07B681B69002B20D0364B012256
:102FD0001A60FEF7E7FF386108E0FEF7E3FF0246FC
:102FE0003B69D31A022B01D903239BE12D4B1B68AC
:102FF00003F00203002BF0D02A4B1B6823F0F802E9
:103000007B685B69DB00274913430B6015E0264BA7
:1030100000221A60FEF7C6FF386108E0FEF7C2FF23
:1030200002463B69D31A022B01D903237AE11D4BD7
:103030001B6803F00203002BF0D17B681B6803F0D0
:103040000803002B3AD07B689B69002B19D0174BE3
:1030500001221A60FEF7A6FF386108E0FEF7A2FF22
:1030600002463B69D31A022B01D903235AE10D4BC7
:103070005B6A03F00203002BF0D0012000F0DAFAC3
:103080001CE00A4B00221A60FEF78CFF38610FE04B
:10309000FEF788FF02463B69D31A022B08D90323A7
:1030A00040E100BF00100240000042428004424262
:1030B0009E4B5B6A03F00203002BE9D17B681B681F
:1030C00003F00403002B00F0A6800023FB75974B50
:1030D000DB6903F08053002B0DD1944BDB69934ADD
:1030E00043F08053D361914BDB6903F08053BB60A5
:1030F000BB680123FB758E4B1B6803F48073002BA8
:1031000018D18B4B1B688A4A43F480731360FEF717
:1031100049FF386108E0FEF745FF02463B69D31AD4
:10312000642B01D90323FDE0814B1B6803F48073FA
:10313000002BF0D07B68DB68012B06D17B4B1B6A30
:103140007A4A43F0010313622DE07B68DB68002BB1
:103150000CD1764B1B6A754A23F001031362734B43
:103160001B6A724A23F0040313621CE07B68DB686D
:10317000052B0CD16D4B1B6A6C4A43F004031362A0
:103180006A4B1B6A694A43F0010313620BE0674B09
:103190001B6A664A23F001031362644B1B6A634A8D
:1031A00023F0040313627B68DB68002B15D0FEF765
:1031B000F9FE38610AE0FEF7F5FE02463B69D31AD4
:1031C00041F28832934201D90323ABE0574B1B6A8B
:1031D00003F00203002BEED014E0FEF7E3FE3861AB
:1031E0000AE0FEF7DFFE02463B69D31A41F288325D
:1031F000934201D9032395E04C4B1B6A03F0020371
:10320000002BEED1FB7D012B05D1484BDB69474AF2
:1032100023F08053D3617B68DB69002B00F0818051
:10322000424B5B6803F00C03082B61D07B68DB69C1
:10323000022B46D13F4B00221A60FEF7B3FE3861E5
:1032400008E0FEF7AFFE02463B69D31A022B01D914
:10325000032367E0354B1B6803F00073002BF0D1AC
:103260007B681B6AB3F5803F08D1304B5B6823F461
:1032700000327B689B682D4913434B602B4B5B6886
:1032800023F474127B68196A7B685B6A0B432749D5
:1032900013434B60274B01221A60FEF783FE38610F
:1032A00008E0FEF77FFE02463B69D31A022B01D9E4
:1032B000032337E01D4B1B6803F00073002BF0D095
:1032C0002FE01C4B00221A60FEF76CFE386108E00C
:1032D000FEF768FE02463B69D31A022B01D903238D
:1032E00020E0124B1B6803F00073002BF0D118E0B4
:1032F0007B68DB69012B01D1012313E00B4B5B6879
:10330000FB60FB6803F480327B681B6A9A4206D13B
:10331000FB6803F470127B685B6A9A4201D0012358
:1033200000E0002318461837BD4680BD001002405B
:10333000007000406000424280B584B000AF786009
:1033400039607B68002B01D10123D0E06A4B1B68F8
:1033500003F007033A689A4210D9674B1B6823F0C1
:10336000070265493B6813430B60634B1B6803F01E
:1033700007033A689A4201D00123B8E07B681B68D2
:1033800003F00203002B20D07B681B6803F00403CA
:10339000002B05D0594B5B68584A43F4E0635360F7
:1033A0007B681B6803F00803002B05D0534B5B6858
:1033B000524A43F460535360504B5B6823F0F00271
:1033C0007B689B684D4913434B607B681B6803F027
:1033D0000103002B40D07B685B68012B07D1474B72
:1033E0001B6803F40033002B15D101237FE07B68B9
:1033F0005B68022B07D1414B1B6803F00073002B65
:1034000009D1012373E03D4B1B6803F00203002B3D
:1034100001D101236BE0394B5B6823F003027B6829
:103420005B68364913434B60FEF7BCFDF8600AE069
:10343000FEF7B8FD0246FB68D31A41F28832934288
:1034400001D9032353E02D4B5B6803F00C027B682A
:103450005B689B009A42EBD1274B1B6803F0070384
:103460003A689A4210D2244B1B6823F00702224983
:103470003B6813430B60204B1B6803F007033A685B
:103480009A4201D0012332E07B681B6803F00403F9
:10349000002B08D0194B5B6823F4E0627B68DB6883
:1034A000164913434B607B681B6803F00803002B2D
:1034B00009D0124B5B6823F460527B681B69DB0008
:1034C0000E4913434B6000F021F801460B4B5B683B
:1034D0001B0903F00F030A4AD35C21FA03F3094ADC
:1034E0001360094B1B681846FEF71AFD00231846A7
:1034F0001037BD4680BD00BF0020024000100240D2
:10350000287100080C0000201000002090B48AB040
:1035100000AF2A4B3C1D0FCB84E80F00284B1B88C3
:103520003B800023FB610023BB6100237B620023FF
:103530007B6100233B62234B5B68FB61FB6903F00B
:103540000C03042B02D0082B03D02DE01E4B3B6252
:103550002DE0FB699B0C03F00F0307F128021344D5
:1035600013F8243C7B61FB6903F48033002B13D0F8
:10357000144B5B685B0C03F0010307F12802134452
:1035800013F8283CBB617B690F4A02FB03F2BB695D
:10359000B2FBF3F37B6204E07B690C4A02FB03F3AA
:1035A0007B627B6A3B6202E0074B3B6200BF3B6A87
:1035B00018462837BD4690BC704700BF106B000806
:1035C000206B00080010024000127A0000093D0044
:1035D00080B400AF024B1B681846BD4680BC7047E4
:1035E0000C00002080B500AFFFF7F2FF0146054B4D
:1035F0005B681B0A03F00703034AD35C21FA03F359
:10360000184680BD001002403871000880B500AF38
:10361000FFF7DEFF0146054B5B68DB0A03F007039B
:10362000034AD35C21FA03F3184680BD0010024020
:103630003871000880B485B000AF78600A4B1B6811
:103640000A4AA2FB03235B0A7A6802FB03F3FB60CE
:1036500000BFFB685A1EFA60002BF9D100BF143777
:10366000BD4680BC704700BF0C000020D34D6210E7
:1036700080B586B000AF786000233B610023FB601B
:103680007B681B6803F00103002B7DD00023FB75D2
:103690004F4BDB6903F08053002B0DD14C4BDB69A2
:1036A0004B4A43F08053D361494BDB6903F08053AD
:1036B000BB60BB680123FB75464B1B6803F480733A
:1036C000002B18D1434B1B68424A43F480731360AC
:1036D000FEF768FC386108E0FEF764FC02463B69CF
:1036E000D31A642B01D903236DE03A4B1B6803F412
:1036F0008073002BF0D0364B1B6A03F44073FB60E1
:10370000FB68002B2ED07B685B6803F44073FA687B
:103710009A4227D02E4B1B6A23F44073FB602E4B3A
:1037200001221A602C4B00221A60294AFB6813629E
:10373000FB6803F00103002B14D0FEF733FC386163
:103740000AE0FEF72FFC02463B69D31A41F28832A9
:10375000934201D9032336E01D4B1B6A03F0020399
:10376000002BEED01A4B1B6A23F440727B685B6817
:10377000174913430B62FB7D012B05D1144BDB6909
:10378000134A23F08053D3617B681B6803F0020364
:10379000002B08D00E4B5B6823F440427B689B688B
:1037A0000B4913434B607B681B6803F01003002B2D
:1037B00008D0074B5B6823F480027B68DB68044910
:1037C00013434B60002318461837BD4680BD00BF29
:1037D00000100240007000404004424290B58DB09D
:1037E00000AF7860554B07F10C040FCB84E80F0055
:1037F000534B1B883B8100237B620023FB62002329
:103800003B620023FB610023BB627B68022B7FD0FD
:10381000102B02D0012B48D08BE04A4B5B68FB6138
:10382000484B1B6803F08073002B7FD0FB699B0C17
:1038300003F00F0307F13002134413F8243C3B62FA
:10384000FB6903F48033002B18D03E4B5B685B0CA4
:1038500003F0010307F13002134413F8283C7B62A4
:10386000FB6903F48033002B0DD0374A7B6AB2FB2F
:10387000F3F23B6A02FB03F3FB6204E03B6A334A68
:1038800002FB03F3FB622F4B5B6803F48003B3F589
:10389000800F02D1FB6ABB6248E0FB6A5B002C4AE6
:1038A000A2FB03235B08BB6240E0264B1B6AFB6163
:1038B000FB6903F44073B3F5807F08D1FB6903F023
:1038C0000203002B03D04FF40043BB621FE0FB69EF
:1038D00003F44073B3F5007F09D11A4B5B6A03F020
:1038E0000203002B03D049F64043BB620FE0FB69A3
:1038F00003F44073B3F5407F1AD1124B1B6803F4F5
:103900000033002B14D04FF22443BB6210E00FE0D1
:10391000FFF77CFE02460B4B5B689B0B03F0030337
:1039200001335B00B2FBF3F3BB6202E000BF00E0D7
:1039300000BFBB6A18463437BD4690BD246B0008F3
:10394000346B00080010024000127A0000093D00AC
:10395000ABAAAAAA80B582B000AF78607B68002BC2
:1039600001D101231DE07B6893F83D30DBB2002BD1
:1039700006D17B68002283F83C207868FEF7D4F8F3
:103980007B68022283F83D207B681A687B680433D9
:103990001946104600F002F97B68012283F83D20A9
:1039A000002318460837BD4680BD000080B584B0AE
:1039B00000AF786039607B681B680122396818465F
:1039C00000F0D6FA7B681B68104A934207D17B68E7
:1039D0001B685A6C7B681B6842F400425A647B681F
:1039E0001B689B6803F00703FB60FB68062B07D08E
:1039F0007B681B681A687B681B6842F001021A60CA
:103A0000002318461037BD4680BD00BF002C014082
:103A100080B584B000AFF860B9607A60FB6893F855
:103A20003C30012B01D10223B4E0FB68012283F872
:103A30003C20FB68022283F83D207B680C2B00F2BF
:103A40009F8001A252F823F07D3A0008813B0008D4
:103A5000813B0008813B0008BD3A0008813B00081B
:103A6000813B0008813B0008FF3A0008813B0008C9
:103A7000813B0008813B00083F3B0008FB681B6856
:103A8000B968184600F0ECF8FB681B689A69FB6897
:103A90001B6842F008029A61FB681B689A69FB6820
:103AA0001B6822F004029A61FB681B689969BB6875
:103AB0001A69FB681B680A439A6162E0FB681B682D
:103AC000B968184600F032F9FB681B689A69FB6810
:103AD0001B6842F400629A61FB681B689A69FB6884
:103AE0001B6822F480629A61FB681B689969BB6855
:103AF0001B691A02FB681B680A439A6141E0FB6874
:103B00001B68B968184600F07BF9FB681B68DA6926
:103B1000FB681B6842F00802DA61FB681B68DA691F
:103B2000FB681B6822F00402DA61FB681B68D96934
:103B3000BB681A69FB681B680A43DA6121E0FB680D
:103B40001B68B968184600F0C5F9FB681B68DA699C
:103B5000FB681B6842F40062DA61FB681B68DA6983
:103B6000FB681B6822F48062DA61FB681B68D96914
:103B7000BB681B691A02FB681B680A43DA6100E034
:103B800000BFFB68012283F83D20FB68002283F818
:103B90003C20002318461037BD4680BD80B485B058
:103BA00000AF786039607B681B68FB607B68294ADE
:103BB00093420BD07B68B3F1804F07D07B68264AD5
:103BC000934203D07B68254A934208D1FB6823F0D7
:103BD0007003FB603B685B68FA681343FB607B68BB
:103BE0001C4A93420BD07B68B3F1804F07D07B68AF
:103BF000194A934203D07B68184A934208D1FB6864
:103C000023F44073FB603B68DB68FA681343FB6096
:103C1000FB6823F080023B685B691343FB607B68B1
:103C2000FA681A603B689A687B68DA623B681A68CF
:103C30007B689A627B68074A934203D13B681A69A2
:103C40007B681A637B6801225A6100BF1437BD4646
:103C500080BC7047002C0140000400400008004078
:103C600080B487B000AF786039607B681B6A23F04E
:103C700001027B681A627B681B6A7B617B685B68F8
:103C80003B617B689B69FB60FB6823F07003FB6012
:103C9000FB6823F00303FB603B681B68FA6813436F
:103CA000FB607B6923F002037B613B689B687A6958
:103CB00013437B617B681C4A93420CD17B6923F0E0
:103CC00008037B613B68DB687A6913437B617B692E
:103CD00023F004037B617B68134A934211D13B6953
:103CE00023F480733B613B6923F400733B613B68C1
:103CF0005B693A6913433B613B689B693A691343CB
:103D00003B617B683A695A607B68FA689A613B68F4
:103D10005A687B685A637B687A691A6200BF1C37ED
:103D2000BD4680BC704700BF002C014080B487B006
:103D300000AF786039607B681B6A23F010027B68F3
:103D40001A627B681B6A7B617B685B683B617B688E
:103D50009B69FB60FB6823F4E043FB60FB6823F492
:103D60004073FB603B681B681B02FA681343FB60EF
:103D70007B6923F020037B613B689B681B017A69A8
:103D800013437B617B681D4A93420DD17B6923F00D
:103D900080037B613B68DB681B017A6913437B61AD
:103DA0007B6923F040037B617B68144A934213D103
:103DB0003B6923F480633B613B6923F400633B610F
:103DC0003B685B699B003A6913433B613B689B69B5
:103DD0009B003A6913433B617B683A695A607B6890
:103DE000FA689A613B685A687B689A637B687A696B
:103DF0001A6200BF1C37BD4680BC7047002C0140D2
:103E000080B487B000AF786039607B681B6A23F4A8
:103E100080727B681A627B681B6A7B617B685B6867
:103E20003B617B68DB69FB60FB6823F07003FB6030
:103E3000FB6823F00303FB603B681B68FA681343CD
:103E4000FB607B6923F400737B613B689B681B020A
:103E50007A6913437B617B681D4A93420DD17B696C
:103E600023F400637B613B68DB681B027A691343C0
:103E70007B617B6923F480637B617B68144A934296
:103E800013D13B6923F480533B613B6923F4005316
:103E90003B613B685B691B013A6913433B613B68CB
:103EA0009B691B013A6913433B617B683A695A601D
:103EB0007B68FA68DA613B685A687B68DA637B681A
:103EC0007A691A6200BF1C37BD4680BC704700BFCC
:103ED000002C014080B487B000AF786039607B6807
:103EE0001B6A23F480527B681A627B681B6A3B6101
:103EF0007B685B687B617B68DB69FB60FB6823F444
:103F0000E043FB60FB6823F44073FB603B681B6885
:103F10001B02FA681343FB603B6923F400533B61C7
:103F20003B689B681B033A6913433B617B680F4AFC
:103F3000934209D17B6923F480437B613B685B69D1
:103F40009B017A6913437B617B687A695A607B685D
:103F5000FA68DA613B685A687B681A647B683A6978
:103F60001A6200BF1C37BD4680BC7047002C014060
:103F700080B487B000AFF860B9607A60BB6803F0C6
:103F80001F03012202FA03F37B61FB681A6A7B6953
:103F9000DB431A40FB681A62FB681A6ABB6803F0CD
:103FA0001F03796801FA03F31A43FB681A6200BF22
:103FB0001C37BD4680BC704780B582B000AF7860CA
:103FC0007B68002B01D101233FE07B6893F83930F7
:103FD000DBB2002B06D17B68002283F8382078689A
:103FE000FDF73CFE7B68242283F839207B681B6840
:103FF000DA687B681B6822F40052DA60786800F0A7
:10400000A9FB7B681B681A697B681B6822F49042D5
:104010001A617B681B685A697B681B6822F02A0258
:104020005A617B681B68DA687B681B6842F400523F
:10403000DA607B680022DA637B68202283F839200B
:104040007B68202283F83A20002318460837BD46B3
:1040500080BD80B588B002AFF860B9603B601346A0
:10406000FB8000237B61FB6893F83930DBB2202BA7
:1040700040F08380BB68002B02D0FB88002B01D16D
:1040800001237BE0FB6893F83830012B01D1022338
:1040900074E0FB68012283F83820FB680022DA63B1
:1040A000FB68212283F83920FDF77CFF7861FB68EB
:1040B000FA889A84FB68FA88DA8442E0FB68DB8C31
:1040C0009BB2013B9AB2FB68DA84FB689B68B3F54C
:1040D000805F22D13B6800937B6900228021F868D1
:1040E00000F0CFF90346002B01D0032346E0BB6864
:1040F0003B613B691B881A46FB681B68C2F30802D8
:104100005A60FB681B69002B03D1BB680233BB609C
:1041100017E0BB680133BB6013E03B6800937B6929
:1041200000228021F86800F0ACF90346002B01D092
:10413000032323E0BB685A1CBA601A78FB681B682B
:104140005A60FB68DB8C9BB2002BB7D13B680093B5
:104150007B6900224021F86800F093F90346002BA8
:1041600001D003230AE0FB68202283F83920FB6892
:10417000002283F83820002300E002231846183775
:10418000BD4680BD80B485B000AFF860B96013460D
:10419000FB80FB6893F83A30DBB2202B40D1BB6840
:1041A000002B02D0FB88002B01D1012339E0FB68F2
:1041B00093F83830012B01D1022332E0FB68012251
:1041C00083F83820FB68BA689A62FB68FA889A8597
:1041D000FB68FA88DA85FB680022DA63FB68222232
:1041E00083F83A20FB68002283F83820FB681B68BC
:1041F000DA68FB681B6842F48072DA60FB681B684F
:104200005A69FB681B6842F001025A61FB681B682F
:10421000DA68FB681B6842F02002DA60002300E0E5
:10422000022318461437BD4680BC704780B588B05D
:1042300000AF78607B681B681B68FB617B681B684C
:10424000DB68BB617B681B685B697B6100233B614A
:104250000023FB60FB6903F00F033B613B69002B0C
:104260000DD1FB6903F02003002B08D0BB6903F0DC
:104270002003002B03D0786800F0EBF9CCE03B6919
:10428000002B00F0AB807B6903F00103002B05D10C
:10429000BB6903F49073002B00F0A080FB6903F06E
:1042A0000103002B0AD0BB6903F48073002B05D0F7
:1042B0007B68DB6B43F001027B68DA63FB6903F028
:1042C0000403002B0AD07B6903F00103002B05D007
:1042D0007B68DB6B43F002027B68DA63FB6903F007
:1042E0000203002B0AD07B6903F00103002B05D0E9
:1042F0007B68DB6B43F004027B68DA63FB6903F0E5
:104300000803002B0AD07B6903F00103002B05D0C2
:104310007B68DB6B43F008027B68DA637B68DB6BEE
:10432000002B78D0FB6903F02003002B07D0BB697A
:1043300003F02003002B02D0786800F08AF97B6834
:104340001B685B6903F04003002B14BF01230023AB
:10435000DBB2FB607B68DB6B03F00803002B02D150
:10436000FB68002B31D0786800F0D5F87B681B68BB
:104370005B6903F04003002B23D07B681B685A69FC
:104380007B681B6822F040025A617B685B6B002BE4
:1043900013D07B685B6B224A5A637B685B6B184661
:1043A000FEF74AFB0346002B16D07B685B6B5B6B0A
:1043B0007A68526B104698470EE0786800F03BF838
:1043C0000AE0786800F037F806E0786800F033F823
:1043D0007B680022DA631EE000BF1CE0FB6903F08B
:1043E0008003002B08D0BB6903F08003002B03D0AF
:1043F000786800F0C1F80FE0FB6903F04003002B80
:104400000AD0BB6903F04003002B05D0786800F0A8
:1044100008F900BF00E000BF2037BD4680BD00BFE7
:104420005145000880B483B000AF786000BF0C37FE
:10443000BD4680BC704780B483B000AF786000BFD9
:104440000C37BD4680BC704780B485B000AF786043
:104450000023FB600023BB607B6893F83930DBB23C
:10446000FB607B6893F83A30DBB2BB60FB68DAB282
:10447000BB68DBB21343DBB218461437BD4680BCC1
:10448000704780B584B000AFF860B9603B601346F8
:10449000FB712CE0BB69B3F1FF3F28D0BB69002B57
:1044A00007D0FDF77FFD02463B68D31ABA699A42EE
:1044B0001DD2FB681B68DA68FB681B6822F4D072A7
:1044C000DA60FB681B685A69FB681B6822F001020E
:1044D0005A61FB68202283F83920FB68202283F888
:1044E0003A20FB68002283F8382003230FE0FB68A2
:1044F0001B681A68BB681340BA689A420CBF012354
:104500000023DBB21A46FB799A42C3D00023184637
:104510001037BD4680BD80B483B000AF78607B6843
:104520001B68DA687B681B6822F49072DA607B682B
:104530001B685A697B681B6822F001025A617B681C
:10454000202283F83A2000BF0C37BD4680BC70475C
:1045500080B584B000AF78607B685B6AFB60FB6805
:104560000022DA85FB680022DA84F868FFF763FF2F
:1045700000BF1037BD4680BD80B485B000AF786005
:104580007B6893F83930DBB2212B44D17B689B6880
:10459000B3F5805F1AD17B681B6AFB60FB681B88E0
:1045A0001A467B681B68C2F308025A607B681B6965
:1045B000002B05D17B681B6A9A1C7B681A620EE08F
:1045C0007B681B6A5A1C7B681A6208E07B681B6A5E
:1045D000591C7A6811621A787B681B685A607B687C
:1045E000DB8C9BB2013B9BB27A681946D184002BCD
:1045F0000FD17B681B68DA687B681B6822F0800239
:10460000DA607B681B68DA687B681B6842F04002EE
:10461000DA60002300E0022318461437BD4680BC50
:10462000704780B582B000AF78607B681B68DA683D
:104630007B681B6822F04002DA607B68202283F8E6
:1046400039207868FFF7EEFE002318460837BD468C
:1046500080BD80B584B000AF78607B6893F83A3055
:10466000DBB2222B71D17B689B68B3F5805F23D1CD
:104670007B689B6AFB607B681B69002B0ED17B68A3
:104680001B685B689BB2C3F308039AB2FB681A808D
:104690007B689B6A9A1C7B689A6229E07B681B682E
:1046A0005B689BB2DBB29AB2FB681A807B689B6A3C
:1046B0005A1C7B689A621BE07B681B69002B0AD13D
:1046C0007B681B6858687B689B6A591C7A68916292
:1046D000C2B21A700CE07B681B685B68DAB27B6858
:1046E0009B6A581C7968886202F07F02D2B21A7005
:1046F0007B68DB8D9BB2013B9BB27A681946D18502
:10470000002B20D17B681B68DA687B681B6822F06D
:104710002002DA607B681B68DA687B681B6822F419
:104720008072DA607B681B685A697B681B6822F0BC
:1047300001025A617B68202283F83A207868FDF7ED
:104740005FFB002302E0002300E00223184610373D
:10475000BD4680BD80B584B000AF78607B681B68C3
:104760001B6923F440517B68DA687B681B680A4345
:104770001A617B689A687B681B691A437B685B696E
:104780001343FB607B681B68DB6823F4B05323F0A2
:104790000C037A681268F9680B43D3607B681B6866
:1047A0005B6923F440717B689A697B681B680A43E4
:1047B0005A617B681B68524A93424ED1FEF726FF2E
:1047C000B860BA6813469B0013449A001A447B6889
:1047D0005B689B00B2FBF3F34A4AA2FB03235B092D
:1047E0001901BA6813469B0013449A001A447B6867
:1047F0005B689B00B2FBF3F2424BA3FB02035B0935
:10480000642000FB03F3D31A1B0132333D4AA2FBA1
:1048100003235B0903F0F0031944BA6813469B00B5
:1048200013449A001A447B685B689B00B2FBF3F266
:10483000344BA3FB02035B09642000FB03F3D31A90
:104840001B0132332F4AA2FB03235B0903F00F0243
:104850007B681B680A449A604DE0FEF7C3FEB860AF
:10486000BA6813469B0013449A001A447B685B683D
:104870009B00B2FBF3F3234AA2FB03235B0919015C
:10488000BA6813469B0013449A001A447B685B681D
:104890009B00B2FBF3F21B4BA3FB02035B096420FA
:1048A00000FB03F3D31A1B013233164AA2FB032386
:1048B0005B0903F0F0031944BA6813469B001344E4
:1048C0009A001A447B685B689B00B2FBF3F20D4BC5
:1048D000A3FB02035B09642000FB03F3D31A1B0153
:1048E0003233084AA2FB03235B0903F00F027B6803
:1048F0001B680A449A6000BF1037BD4680BD00BFE8
:10490000003801401F85EB51014B1868704700BF0C
:104910001800002070B500250C4E0D4CA41BA410EF
:10492000A54209D102F05EF800250A4E0A4CA41BEC
:10493000A410A54205D170BD56F825309847013521
:10494000EEE756F8253098470135F2E70074000885
:104950000074000800740008047400080346024450
:10496000934200D1704703F8011BF9E7002B2DE9B2
:10497000F0471E46BBBF03F100431E4600232D2314
:1049800088B0149FDDE9121A27F02007462F14463D
:10499000109D0B7004D0452F00D10135022300E09B
:1049A000032307AA049206AACDE902A2CDE90035A5
:1049B0002246334600F0D8FC472F804602D1119B97
:1049C000DB0726D5462F08EB050911D198F80030F2
:1049D000302B0AD10022002320463146FBF7E4FFAA
:1049E00018B9C5F10105CAF80050DAF80030994449
:1049F0000022002320463146FBF7D6FF38B930228B
:104A0000079B4B4505D2591C07911A70F8E7CDF862
:104A10001C904046079B159AA3EB0803136008B04F
:104A2000BDE8F087F7B50029B4BF2D232B2304463A
:104A3000B8BF4942092904F8022B437021DD0DF16A
:104A400007031F460A2691FBF6F506FB1511092DF3
:104A500001F1300103F8011C03F1FF32294609DCA2
:104A60003031023B02F8011CBB42224604D3101A2B
:104A700003B0F0BD1346E6E713F8012B04F8012B51
:104A8000F2E7302319448370021DC170EFE7000084
:104A90002DE9F04F91B00C461A9F93461E460546ED
:104AA00001F016FA036818460993FBF751FB00233F
:104AB0000E933B680A90073323F0070303F10802C3
:104AC00094F81880D4F800A03A60D3E90023C4E930
:104AD0001223D4E9127929F000430B934FF0FF32EF
:104AE000A64B38460B99FBF791FF68BB4FF0FF329E
:104AF000A24B38460B99FBF76BFF28BB0022002323
:104B000038464946FBF75AFF10B12D2384F843304D
:104B10009B4F9C4BB8F1470F98BF1F4603234FF0A4
:104B2000000923612AF00403236000965B460FAA64
:104B30002146284600F0E2F9013040F090804FF025
:104B4000FF3011B0BDE8F08F3A464B463846494633
:104B5000FBF75CFF10B18C4F8C4BDBE763684AF4CA
:104B60008062591C0DA80EA940D1062363604FF046
:104B7000000C0DF13303CDE9012363682260CDE918
:104B8000030800933A464B46CDE9051C2846FFF73B
:104B9000EDFE08F0DF03472B074609D10D9BD81C1B
:104BA00002DB6268934247DDA8F102085FFA88F8E9
:104BB000B8F1650F0D9924D80139424604F150002F
:104BC0000D91FFF72FFF0E9A81461318012A2361DA
:104BD00002DC2268D10701D5013323619DF833300F
:104BE000002BA2D02D2384F843309EE7B8F1670F45
:104BF00000F06E81B8F1470FB9D1002BB7D1012376
:104C0000B4E7B8F1660F19D1002963680CDD2161A2
:104C100013B92268D20702D501330B4423610D9BDF
:104C20004FF00009A365D9E713B92268D00701D571
:104C30000233F3E70123F1E74FF06708DDE90D32B6
:104C4000934205DB22682361D107E8D50133E5E70C
:104C5000002BCCBF0123C3F102031344DEE723681A
:104C60005A0507D423693A4659462846B0470130C9
:104C700029D164E7B8F1650F40F2D780D4E9120179
:104C800000220023FBF790FE88B30123404A5946D7
:104C90002846B04701303FF452AFDDE90D239A4278
:104CA00002DB2368D8070ED5DDE9092359462846DB
:104CB000B04701303FF443AF002704F11A080E9BC0
:104CC000013BBB4209DC23689F0700F1FD80E068DF
:104CD0000F9B9842B8BF184633E701234246594616
:104CE0002846B04701303FF42AAF0137E7E70D9B74
:104CF000002B2BDC0123264A59462846B0470130B9
:104D00003FF41DAF0D9B23B90E9B13B92368D90740
:104D1000D9D5DDE9092359462846B04701303FF48B
:104D20000EAF4FF0000804F11A090D9B5B4243459A
:104D300001DC0E9B97E701234A4659462846B047B7
:104D400001303FF4FCAE08F10108EEE70E9AA36DC6
:104D50009A42A8BF1A46002A904607DD13465946D4
:104D60003A462846B04701303FF4E9AE04F11A0351
:104D70004FF0000A28EAE8780B9315E0FFFFEF7F79
:104D800044710008407100084C7100084871000827
:104D90005071000801230B9A59462846B04701304C
:104DA0003FF4CDAE0AF1010AD4F85890A9EB0803FC
:104DB0005345EFDCDDE90D239A424F4414DB2368B1
:104DC000DA0711D40E9B0D99A3EB0902A3EB01099D
:104DD0009145A8BF9146B9F1000F0DDC002729EAE3
:104DE000E97904F11A0818E0DDE909235946284653
:104DF000B0470130E6D1A2E64B463A46594628462E
:104E0000B0470130EAD19AE6012342465946284686
:104E1000B04701303FF493AE0137DDE90D239B1A13
:104E2000A3EB0903BB42EFDC4DE70E9A012A01DC3C
:104E3000DB0738D501233A4659462846B0470130AA
:104E40003FF47DAEDDE9092359462846B0470130DD
:104E500007F101073FF473AED4E912010E9B002263
:104E600003F1FF380023FBF79FFDC0B943463A46E4
:104E700059462846B04701300DD160E6012342462D
:104E800059462846B04701303FF459AE01370E9BD2
:104E9000013BBB42F2DC4B4604F15002E4E6002742
:104EA00004F11A08F3E70123E1E7012342465946DA
:104EB0002846B04701303FF442AE0137E3680F9A0D
:104EC0009B1ABB42F1DC02E7002704F11908F5E761
:104ED000002B3FF494AE4FF0000CCDE9051C0DF112
:104EE00033012260CDE90308CDE9012100933A4660
:104EF0004B462846FFF73AFD07464FE62DE9F047B7
:104F000091461F468A680B6906469342B8BF13460E
:104F1000C9F8003091F843200C46DDF8208012B12A
:104F20000133C9F800302368990642BFD9F8003030
:104F30000233C9F80030256815F0060507D104F1E1
:104F4000190AE368D9F800209B1AAB4229DC94F8CF
:104F500043302268003318BF012392062ED404F197
:104F6000430239463046C047013021D02368E56806
:104F700003F00603042B18BF0025D9F800204FF0DA
:104F8000000908BFAD1AA368226908BF25EAE575C4
:104F90009342C4BF9B1AED181A344D451AD1002014
:104FA00008E00123524639463046C047013003D15C
:104FB0004FF0FF30BDE8F0870135C2E73020E1183F
:104FC00081F843005A1C94F845102244023382F8B9
:104FD0004310C4E70123224639463046C04701301A
:104FE000E6D009F10109D8E72DE9F04301F1430CBE
:104FF0000C46097E85B06E291746064698460C9ADF
:1050000000F0B38022D8632936D00AD8002900F0F6
:10501000B980582900F0838004F1420584F84210D9
:1050200032E0642901D06929F6D1206813680506A9
:1050300003F104012AD51B681160002B03DA2D222D
:105040005B4284F843206F480A2239E0732900F05C
:105050009D8008D86F2920D07029DDD1236843F0C6
:105060002003236003E0752917D07829D4D1782351
:10507000654884F8453055E0136804F14205191D70
:105080001B68116084F8423001238CE01B6810F02B
:10509000400F116018BF1BB2CFE713682568181DB9
:1050A0001060280601D51B6802E06806FBD51B8846
:1050B0006F2914BF0A2208225248002184F84310A5
:1050C0006568002DA560C0F29580216821F004017B
:1050D0002160002B3DD1002D40F08E806546082ACE
:1050E0000BD12368DB0708D5236962689A42DEBFCB
:1050F000302305F8013C05F1FF35ACEB05032361D6
:10510000CDF800803B4603AA21463046FFF7F6FE65
:1051100001304DD14FF0FF3005B0BDE8F083394884
:1051200084F84510136821681D1D1B6815600A0668
:105130000BD5CA0744BF41F0200121601BB922688A
:1051400022F0200222601022B7E74D0648BF9BB232
:10515000EFE76546B3FBF2F102FB1133C35C05F8E0
:10516000013D0B460029F5D1B9E713682568181DE4
:105170006169106028061B6801D5196002E06A06A3
:10518000FBD51980002365462361B9E71368191D13
:1051900011601D6862680021284600F0C1FE08B158
:1051A000401B606063682361002384F84330A7E7F5
:1051B00023692A4639463046C0470130AAD02368C1
:1051C0009B0713D4E068039B9842B8BF1846A3E737
:1051D00001234A4639463046C04701309AD001354E
:1051E000E368039A9B1AAB42F2DCEBE7002504F17B
:1051F0001909F5E7002BACD1037804F1420584F8D6
:1052000042306CE752710008637100080EB46FF011
:10521000004100B59CB01DAB02900690079104912F
:105220000848094953F8042B0591006802A9019325
:1052300001F07AFA0022029B1A701CB05DF804EBB0
:1052400003B07047180000200802FFFF2DE9F74F58
:1052500003690C698046A342C0F28480013C01F1DD
:10526000140700F1140657F8245056F824000135AD
:10527000B0FBF5F54FEA840C06EB0C0307EB0C09C9
:1052800001939DB34FF0000A3846B646D34650F816
:10529000042B93B205FB03A3120C4FEA134A05FB40
:1052A00002A29BB2ABEB0303DEF800B04FEA124A56
:1052B0001FFA8BFB5B441FFA82FBDEF8002081455E
:1052C000CBEB124202EB23429BB243EA02434FEA8A
:1052D000224B4EF8043BDAD256F80C3033B9019B1E
:1052E000043B9E421A4631D3C8F81040404601F0B4
:1052F00045F8002826DB30464FF0000C013557F802
:10530000041BD0F800E08BB2ACEB03031FFA8EF263
:1053100013440A0CC2EB1E4202EB23429BB243EA47
:105320000243B9454FEA224C40F8043BE7D256F815
:10533000242006EB84032AB9043B9E421A460BD371
:10534000C8F81040284603B0BDE8F08F1268043B4F
:10535000002AC9D1013CC4E71268043B002AEFD1FE
:10536000013CEAE70020EEE72DE9F04F16461F4624
:10537000456A95B00446DDF88480CDE902673DB901
:10538000102000F0B3FD6062C0E901550560C56002
:10539000636A196851B15A68012393404A608B606F
:1053A000204600F00AFE0022636A1A603B1EAFBF6F
:1053B0000023012223F000430393ACBFC8F8003060
:1053C000C8F80020AE4BDDF80C8033EA08031BD18F
:1053D00042F20F73209A1360029B23B9C8F31300A3
:1053E000002800F04585229B53B9A64B21E0A64B2F
:1053F00006930833229A1360069815B0BDE8F08F23
:10540000A04B06930333F5E7DDE902670022002392
:1054100030463946FBF7C8FA824660B10123209A2C
:105420001360229B002B00F02085984B229A13607A
:10543000013B0693E0E712AB019313AB00933246B6
:105440003B46204601F012F8C8F30A558346002D6A
:105450007DD0B046C7F3130343F07F5949F4401998
:10546000A5F2FF35CDF840A00022894B40464946C1
:10547000FAF77AFE7CA3D3E90023FBF72DF87CA38F
:10548000D3E90023FAF772FE064628460F46FAF7DC
:10549000B9FF79A3D3E90023FBF71EF802460B46B8
:1054A00030463946FAF762FE06460F46FBF7C4FA65
:1054B00000228246002330463946FBF77FFA48B186
:1054C0005046FAF79FFF32463B46FBF76DFA08B9A4
:1054D0000AF1FF3ABAF1160F5AD8DDE902236D49F5
:1054E00001EBCA01D1E90001FBF786FA002851D08F
:1054F00000230AF1FF3A0D93129B5D1B6B1E07936D
:1055000043BF0023C5F1010907934FF00009BAF129
:10551000000F41DB079BCDF830A0534407930023D5
:1055200008931E9B092B00F28F80052BC4BF043B00
:105530001E931E9BC8BF0025A3F10203D8BF0125FF
:10554000032B00F28D80DFE803F07B7D2F6FDDE918
:1055500012531D4405F23240202813DDC0F14000F3
:10556000029B08FA00F805F2124023FA00F048EA1C
:105570000000FAF737FF01238046A1F1F879013DD9
:10558000109371E7029BC0F1200003FA00F0F0E7EE
:105590000123B0E70D90AFE7CAF1000308930023A1
:1055A000A9EB0A090C93BCE7012309931F9B002B6D
:1055B00074DD984604930022666A7260042202F148
:1055C0001400984271686ED9204600F0C2FC636AEC
:1055D00030601B68B8F10E0F069300F2ED80002DCD
:1055E00000F0EA80DDE90223BAF1000FCDE90E23D5
:1055F00077DD284A0AF00F034FEA2A1602EBC303AD
:10560000F006D3E90023CDE90A2368D5DDE90E01D0
:10561000214B0325D3E90823FBF788F8CDE90201E4
:1056200006F00F061C4F4FE0012309931F9B5344C4
:1056300003F1010804934346012BB8BF0123BAE7E5
:105640000023B2E70023F0E70125002309951E930C
:105650004FF0FF3300220493984612231F92AAE7CB
:1056600001230993F4E700BF61436F63A787D23F2B
:10567000B3C8608B288AC63FFB799F501344D33F41
:105680000000F07F7D7100087471000851710008FE
:105690000000F83F18720008F0710008012304931D
:1056A00098461A46DAE701317160520087E7F10740
:1056B00008D5DDE90A01D7E90023FAF70DFFCDE9A6
:1056C0000A01013576100837002EF0D1DDE90A23F2
:1056D000DDE90201FBF72AF8CDE902011BE0022512
:1056E000A0E700F0A480DDE90E01CAF10006A04B9E
:1056F00006F00F0203EBC203D3E90023FAF7ECFE36
:1057000002250023CDE902019A4F3611002E40F008
:105710008380002BE0D10D9B002B00F08A80DDE917
:105720000223CDE90A23DDE90A010022924BFBF7AF
:1057300045F900287DD0B8F1000F7AD0049B002BEA
:1057400036DDDDE90A0100228C4BFAF7C5FECDE912
:105750000201049E0AF1FF3701352846FAF752FE8E
:10576000DDE90223FAF7B8FE0022854BFAF7FEFCCA
:10577000A1F15075CDE90A010B95002E5CD1DDE950
:10578000020100227F4BFAF7EFFC0A9A2B46CDE983
:105790000201FBF731F9002840F08182DDE90201C6
:1057A0000A9A05F10043FBF709F9002840F07582D9
:1057B000DDE90E23CDE90223139B002BC0F24B81C0
:1057C000BAF10E0F00F34781694B03EBCA03D3E92B
:1057D0000023CDE904231F9B002B80F2D780B8F172
:1057E000000F00F3D38040F05782DDE9040100226E
:1057F000644BFAF771FEDDE90223FBF7F3F8464646
:105800004746002840F02D82069B069A5D1C3123F6
:105810000AF1010A137028E2F20705D5D7E900233F
:10582000FAF75AFE01230135761008376EE7022594
:1058300071E75746464690E74D4B03EBC60353E9E5
:105840000201099B002B48D002460B4600204E491E
:10585000FAF76CFFDDE90A23FAF786FCCDE90A01C5
:10586000069DDDE90201FBF7E7F81190FAF7CAFDA2
:1058700002460B46DDE90201FAF776FC119BCDE901
:105880000201303305F8013BDDE90A23FBF796F806
:10589000002863D1DDE9022300203749FAF764FCD0
:1058A000DDE90A23FBF78AF8002840F0B580069B63
:1058B000EB1A9E427FF77CAFDDE90A0100222F4BF5
:1058C000FAF70AFE0022CDE90A01DDE902012B4BBD
:1058D000FAF702FECDE90201C3E7DDE90A23FAF790
:1058E000FBFD069BCDE90A019D191E46DDE902017B
:1058F000FBF7A2F81190FAF785FD02460B46DDE9A9
:105900000201FAF731FC119BCDE90201303306F8B0
:10591000013BAE424FF0000224D1DDE90A011A4BEF
:10592000FAF724FC02460B46DDE90201FBF764F8B6
:10593000002871D1DDE90A2300201349FAF714FC8D
:1059400002460B46DDE90201FBF738F800283FF478
:105950002FAF15F8013C6A1E302B01D0BA464AE041
:105960001546F6E7054BFAF7B7FDCDE90201BDE7AD
:1059700018720008F07100080000F03F0000244099
:1059800000001C40000014400000E03F069DDDE9DF
:105990000267DDE9042330463946FAF7C7FEFBF714
:1059A0004BF88146FAF72EFDDDE90423FAF794FD62
:1059B00002460B4630463946FAF7D6FB09F1300667
:1059C00005F8016B069E0246AE1BB0450B4635D16D
:1059D000FAF7CCFBDDE9042306460F46FBF70CF88B
:1059E000C8B9DDE9042330463946FAF7DDFF10B1C6
:1059F00019F0010F0FD15946204600F0DEFA0023BE
:105A0000209A2B700AF101031360229B002B3FF4B4
:105A1000F3AC1D60F0E4574615F8012C6B1E392AD3
:105A200006D1069A9A4207D13023137013460137E4
:105A30001A7801321A7091E71D46EDE70022994B62
:105A4000FAF74AFD0022002306460F46FAF7ACFF9C
:105A500000289ED0CFE7099A002A00F088801E9A7D
:105A6000012A6DDC109A002A66D003F233434D46BA
:105A7000089E079A01211A4420469944079200F093
:105A80003CFB0746002D0BDD079B002B08DDAB42DE
:105A9000A8BF2B46079AA9EB0309ED1AD31A07935F
:105AA000089BEBB1099B002B65D08EB1394632467D
:105AB000204600F0C1FB5A4601460746204600F04A
:105AC00025FB59460A90204600F077FA0A9B9B4630
:105AD000089B9A1B04D05946204600F0ADFB834634
